{
  "contractName": "TransactionLedger",
  "abi": [
    {
      "anonymous": false,
      "inputs": [
        {
          "indexed": true,
          "internalType": "uint256",
          "name": "txnId",
          "type": "uint256"
        },
        {
          "indexed": true,
          "internalType": "address",
          "name": "user",
          "type": "address"
        },
        {
          "indexed": false,
          "internalType": "uint256",
          "name": "amount",
          "type": "uint256"
        },
        {
          "indexed": false,
          "internalType": "string",
          "name": "paymentId",
          "type": "string"
        },
        {
          "indexed": false,
          "internalType": "enum TransactionLedger.TransactionType",
          "name": "txnType",
          "type": "uint8"
        },
        {
          "indexed": false,
          "internalType": "string",
          "name": "referenceId",
          "type": "string"
        },
        {
          "indexed": false,
          "internalType": "enum TransactionLedger.Status",
          "name": "status",
          "type": "uint8"
        },
        {
          "indexed": false,
          "internalType": "uint256",
          "name": "refundedAmount",
          "type": "uint256"
        },
        {
          "indexed": false,
          "internalType": "address",
          "name": "refundFrom",
          "type": "address"
        },
        {
          "indexed": false,
          "internalType": "string",
          "name": "notes",
          "type": "string"
        },
        {
          "indexed": false,
          "internalType": "uint256",
          "name": "createdAt",
          "type": "uint256"
        }
      ],
      "name": "TransactionRecorded",
      "type": "event"
    },
    {
      "inputs": [
        {
          "internalType": "string",
          "name": "",
          "type": "string"
        }
      ],
      "name": "paymentIdToTxnId",
      "outputs": [
        {
          "internalType": "uint256",
          "name": "",
          "type": "uint256"
        }
      ],
      "stateMutability": "view",
      "type": "function"
    },
    {
      "inputs": [],
      "name": "transactionCount",
      "outputs": [
        {
          "internalType": "uint256",
          "name": "",
          "type": "uint256"
        }
      ],
      "stateMutability": "view",
      "type": "function"
    },
    {
      "inputs": [
        {
          "internalType": "uint256",
          "name": "",
          "type": "uint256"
        }
      ],
      "name": "transactions",
      "outputs": [
        {
          "internalType": "address",
          "name": "user",
          "type": "address"
        },
        {
          "internalType": "uint256",
          "name": "amount",
          "type": "uint256"
        },
        {
          "internalType": "string",
          "name": "paymentId",
          "type": "string"
        },
        {
          "internalType": "enum TransactionLedger.TransactionType",
          "name": "transactionType",
          "type": "uint8"
        },
        {
          "internalType": "string",
          "name": "referenceId",
          "type": "string"
        },
        {
          "internalType": "enum TransactionLedger.Status",
          "name": "status",
          "type": "uint8"
        },
        {
          "internalType": "uint256",
          "name": "refundedAmount",
          "type": "uint256"
        },
        {
          "internalType": "address",
          "name": "refundFrom",
          "type": "address"
        },
        {
          "internalType": "string",
          "name": "notes",
          "type": "string"
        },
        {
          "internalType": "uint256",
          "name": "createdAt",
          "type": "uint256"
        }
      ],
      "stateMutability": "view",
      "type": "function"
    },
    {
      "inputs": [
        {
          "internalType": "address",
          "name": "user",
          "type": "address"
        },
        {
          "internalType": "uint256",
          "name": "amount",
          "type": "uint256"
        },
        {
          "internalType": "string",
          "name": "paymentId",
          "type": "string"
        },
        {
          "internalType": "uint8",
          "name": "txnType",
          "type": "uint8"
        },
        {
          "internalType": "string",
          "name": "referenceId",
          "type": "string"
        },
        {
          "internalType": "uint8",
          "name": "status",
          "type": "uint8"
        },
        {
          "internalType": "uint256",
          "name": "refundedAmount",
          "type": "uint256"
        },
        {
          "internalType": "address",
          "name": "refundFrom",
          "type": "address"
        },
        {
          "internalType": "string",
          "name": "notes",
          "type": "string"
        }
      ],
      "name": "recordTransaction",
      "outputs": [],
      "stateMutability": "nonpayable",
      "type": "function"
    },
    {
      "inputs": [
        {
          "internalType": "uint256",
          "name": "txnId",
          "type": "uint256"
        }
      ],
      "name": "getTransactionById",
      "outputs": [
        {
          "components": [
            {
              "internalType": "address",
              "name": "user",
              "type": "address"
            },
            {
              "internalType": "uint256",
              "name": "amount",
              "type": "uint256"
            },
            {
              "internalType": "string",
              "name": "paymentId",
              "type": "string"
            },
            {
              "internalType": "enum TransactionLedger.TransactionType",
              "name": "transactionType",
              "type": "uint8"
            },
            {
              "internalType": "string",
              "name": "referenceId",
              "type": "string"
            },
            {
              "internalType": "enum TransactionLedger.Status",
              "name": "status",
              "type": "uint8"
            },
            {
              "internalType": "uint256",
              "name": "refundedAmount",
              "type": "uint256"
            },
            {
              "internalType": "address",
              "name": "refundFrom",
              "type": "address"
            },
            {
              "internalType": "string",
              "name": "notes",
              "type": "string"
            },
            {
              "internalType": "uint256",
              "name": "createdAt",
              "type": "uint256"
            }
          ],
          "internalType": "struct TransactionLedger.Transaction",
          "name": "",
          "type": "tuple"
        }
      ],
      "stateMutability": "view",
      "type": "function"
    },
    {
      "inputs": [
        {
          "internalType": "string",
          "name": "paymentId",
          "type": "string"
        }
      ],
      "name": "getTransactionByPaymentId",
      "outputs": [
        {
          "components": [
            {
              "internalType": "address",
              "name": "user",
              "type": "address"
            },
            {
              "internalType": "uint256",
              "name": "amount",
              "type": "uint256"
            },
            {
              "internalType": "string",
              "name": "paymentId",
              "type": "string"
            },
            {
              "internalType": "enum TransactionLedger.TransactionType",
              "name": "transactionType",
              "type": "uint8"
            },
            {
              "internalType": "string",
              "name": "referenceId",
              "type": "string"
            },
            {
              "internalType": "enum TransactionLedger.Status",
              "name": "status",
              "type": "uint8"
            },
            {
              "internalType": "uint256",
              "name": "refundedAmount",
              "type": "uint256"
            },
            {
              "internalType": "address",
              "name": "refundFrom",
              "type": "address"
            },
            {
              "internalType": "string",
              "name": "notes",
              "type": "string"
            },
            {
              "internalType": "uint256",
              "name": "createdAt",
              "type": "uint256"
            }
          ],
          "internalType": "struct TransactionLedger.Transaction",
          "name": "",
          "type": "tuple"
        }
      ],
      "stateMutability": "view",
      "type": "function"
    }
  ],
  "bytecode": "0x60806040525f8055348015610012575f80fd5b506112cb806100205f395ff3fe608060405234801561000f575f80fd5b5060043610610060575f3560e01c80630cc8d25a146100645780631a3013e81461008d5780639ace38c2146100c6578063b77bf600146100ef578063c8f243e7146100f7578063f4b30eaf1461010c575b5f80fd5b610077610072366004610c25565b61011f565b6040516100849190610d16565b60405180910390f35b6100b861009b366004610e94565b805160208183018101805160028252928201919093012091525481565b604051908152602001610084565b6100d96100d4366004610ece565b6103ca565b6040516100849a99989796959493929190610ee5565b6100b85f5481565b61010a610105366004610fa6565b6105d1565b005b61007761011a366004610ece565b61092e565b610127610bb6565b5f6002848460405161013a92919061107c565b908152604080519182900360209081018320545f8181526001808452908490206101408601855280546001600160a01b0316865290810154928501929092526002820180549195509192840191906101919061108b565b80601f01602080910402602001604051908101604052809291908181526020018280546101bd9061108b565b80156102085780601f106101df57610100808354040283529160200191610208565b820191905f5260205f20905b8154815290600101906020018083116101eb57829003601f168201915b5050509183525050600382015460209091019060ff16600481111561022f5761022f610cde565b600481111561024057610240610cde565b81526020016004820180546102549061108b565b80601f01602080910402602001604051908101604052809291908181526020018280546102809061108b565b80156102cb5780601f106102a2576101008083540402835291602001916102cb565b820191905f5260205f20905b8154815290600101906020018083116102ae57829003601f168201915b5050509183525050600582015460209091019060ff1660028111156102f2576102f2610cde565b600281111561030357610303610cde565b81526006820154602082015260078201546001600160a01b031660408201526008820180546060909201916103379061108b565b80601f01602080910402602001604051908101604052809291908181526020018280546103639061108b565b80156103ae5780601f10610385576101008083540402835291602001916103ae565b820191905f5260205f20905b81548152906001019060200180831161039157829003601f168201915b5050505050815260200160098201548152505091505092915050565b600160208190525f91825260409091208054918101546002820180546001600160a01b03909416939192916103fe9061108b565b80601f016020809104026020016040519081016040528092919081815260200182805461042a9061108b565b80156104755780601f1061044c57610100808354040283529160200191610475565b820191905f5260205f20905b81548152906001019060200180831161045857829003601f168201915b5050506003840154600485018054949560ff9092169491935091506104999061108b565b80601f01602080910402602001604051908101604052809291908181526020018280546104c59061108b565b80156105105780601f106104e757610100808354040283529160200191610510565b820191905f5260205f20905b8154815290600101906020018083116104f357829003601f168201915b505050600584015460068501546007860154600887018054969760ff909416969295506001600160a01b0390911693509061054a9061108b565b80601f01602080910402602001604051908101604052809291908181526020018280546105769061108b565b80156105c15780601f10610598576101008083540402835291602001916105c1565b820191905f5260205f20905b8154815290600101906020018083116105a457829003601f168201915b505050505090806009015490508a565b85600460ff8216111561062b5760405162461bcd60e51b815260206004820152601860248201527f496e76616c6964207472616e73616374696f6e2074797065000000000000000060448201526064015b60405180910390fd5b6001600160a01b038a166106785760405162461bcd60e51b8152602060048201526014602482015273496e76616c69642075736572206164647265737360601b6044820152606401610622565b5f89116106bc5760405162461bcd60e51b81526020600482015260126024820152710416d6f756e74206d757374206265203e20360741b6044820152606401610622565b5f805481806106ca836110c3565b9190505590506040518061014001604052808c6001600160a01b031681526020018b81526020018a81526020018960ff16600481111561070c5761070c610cde565b600481111561071d5761071d610cde565b81526020018881526020018760ff16600281111561073d5761073d610cde565b600281111561074e5761074e610cde565b8152602001868152602001856001600160a01b031681526020018481526020014281525060015f8381526020019081526020015f205f820151815f015f6101000a8154816001600160a01b0302191690836001600160a01b031602179055506020820151816001015560408201518160020190816107cc9190611135565b50606082015160038201805460ff191660018360048111156107f0576107f0610cde565b0217905550608082015160048201906108099082611135565b5060a082015160058201805460ff1916600183600281111561082d5761082d610cde565b021790555060c0820151600682015560e08201516007820180546001600160a01b0319166001600160a01b0390921691909117905561010082015160088201906108779082611135565b5061012082015181600901559050508060028a60405161089791906111f1565b908152604051908190036020019020556001600160a01b038b16817f851f3911ea03c51d651db4216d44c81b73adf83ecc47a366c575fc1766f828e88c8c60ff8d1660048111156108ea576108ea610cde565b8c8c60ff16600281111561090057610900610cde565b8c8c8c426040516109199998979695949392919061120c565b60405180910390a35050505050505050505050565b610936610bb6565b5f8281526001602081815260409283902083516101408101855281546001600160a01b031681529281015491830191909152600281018054929391929184019161097f9061108b565b80601f01602080910402602001604051908101604052809291908181526020018280546109ab9061108b565b80156109f65780601f106109cd576101008083540402835291602001916109f6565b820191905f5260205f20905b8154815290600101906020018083116109d957829003601f168201915b5050509183525050600382015460209091019060ff166004811115610a1d57610a1d610cde565b6004811115610a2e57610a2e610cde565b8152602001600482018054610a429061108b565b80601f0160208091040260200160405190810160405280929190818152602001828054610a6e9061108b565b8015610ab95780601f10610a9057610100808354040283529160200191610ab9565b820191905f5260205f20905b815481529060010190602001808311610a9c57829003601f168201915b5050509183525050600582015460209091019060ff166002811115610ae057610ae0610cde565b6002811115610af157610af1610cde565b81526006820154602082015260078201546001600160a01b03166040820152600882018054606090920191610b259061108b565b80601f0160208091040260200160405190810160405280929190818152602001828054610b519061108b565b8015610b9c5780601f10610b7357610100808354040283529160200191610b9c565b820191905f5260205f20905b815481529060010190602001808311610b7f57829003601f168201915b505050505081526020016009820154815250509050919050565b6040518061014001604052805f6001600160a01b031681526020015f8152602001606081526020015f6004811115610bf057610bf0610cde565b8152606060208201526040015f81526020015f81526020015f6001600160a01b03168152602001606081526020015f81525090565b5f8060208385031215610c36575f80fd5b823567ffffffffffffffff80821115610c4d575f80fd5b818501915085601f830112610c60575f80fd5b813581811115610c6e575f80fd5b866020828501011115610c7f575f80fd5b60209290920196919550909350505050565b5f5b83811015610cab578181015183820152602001610c93565b50505f910152565b5f8151808452610cca816020860160208601610c91565b601f01601f19169290920160200192915050565b634e487b7160e01b5f52602160045260245ffd5b60058110610d0257610d02610cde565b9052565b60038110610d0257610d02610cde565b60208152610d306020820183516001600160a01b03169052565b602082015160408201525f6040830151610140806060850152610d57610160850183610cb3565b91506060850151610d6b6080860182610cf2565b506080850151601f19808685030160a0870152610d888483610cb3565b935060a08701519150610d9e60c0870183610d06565b60c087015160e087015260e08701519150610100610dc6818801846001600160a01b03169052565b80880151925050610120818786030181880152610de38584610cb3565b970151959092019490945250929392505050565b634e487b7160e01b5f52604160045260245ffd5b5f82601f830112610e1a575f80fd5b813567ffffffffffffffff80821115610e3557610e35610df7565b604051601f8301601f19908116603f01168101908282118183101715610e5d57610e5d610df7565b81604052838152866020858801011115610e75575f80fd5b836020870160208301375f602085830101528094505050505092915050565b5f60208284031215610ea4575f80fd5b813567ffffffffffffffff811115610eba575f80fd5b610ec684828501610e0b565b949350505050565b5f60208284031215610ede575f80fd5b5035919050565b6001600160a01b038b81168252602082018b9052610140604083018190525f91610f118483018d610cb3565b9150610f20606085018c610cf2565b8382036080850152610f32828b610cb3565b9150610f4160a085018a610d06565b60c08401889052861660e0840152828103610100840152610f628186610cb3565b915050826101208301529b9a5050505050505050505050565b80356001600160a01b0381168114610f91575f80fd5b919050565b803560ff81168114610f91575f80fd5b5f805f805f805f805f6101208a8c031215610fbf575f80fd5b610fc88a610f7b565b985060208a0135975060408a013567ffffffffffffffff80821115610feb575f80fd5b610ff78d838e01610e0b565b985061100560608d01610f96565b975060808c013591508082111561101a575f80fd5b6110268d838e01610e0b565b965061103460a08d01610f96565b955060c08c0135945061104960e08d01610f7b565b93506101008c013591508082111561105f575f80fd5b5061106c8c828d01610e0b565b9150509295985092959850929598565b818382375f9101908152919050565b600181811c9082168061109f57607f821691505b6020821081036110bd57634e487b7160e01b5f52602260045260245ffd5b50919050565b5f600182016110e057634e487b7160e01b5f52601160045260245ffd5b5060010190565b601f821115611130575f81815260208120601f850160051c8101602086101561110d5750805b601f850160051c820191505b8181101561112c57828155600101611119565b5050505b505050565b815167ffffffffffffffff81111561114f5761114f610df7565b6111638161115d845461108b565b846110e7565b602080601f831160018114611196575f841561117f5750858301515b5f19600386901b1c1916600185901b17855561112c565b5f85815260208120601f198616915b828110156111c4578886015182559484019460019091019084016111a5565b50858210156111e157878501515f19600388901b60f8161c191681555b5050505050600190811b01905550565b5f8251611202818460208701610c91565b9190910192915050565b5f6101208b83528060208401526112258184018c610cb3565b9050611234604084018b610cf2565b8281036060840152611246818a610cb3565b90506112556080840189610d06565b60a083018790526001600160a01b03861660c084015282810360e084015261127d8186610cb3565b915050826101008301529a995050505050505050505056fea2646970667358221220db058eb7af9c8a15908bda4b8ada5742e313013bd01ba25f1f94f73dd881554f64736f6c63430008140033",
  "immutableReferences": {},
  "source": "// SPDX-License-Identifier: MIT\r\npragma solidity ^0.8.20;\r\n\r\ncontract TransactionLedger {\r\n    enum TransactionType { Recharge, Purchase, Refund, Withdrawal, MoneyTransfer }\r\n    enum Status { Pending, Completed, Failed }\r\n\r\n    struct Transaction {\r\n        address user;\r\n        uint256 amount;\r\n        string paymentId;\r\n        TransactionType transactionType;\r\n        string referenceId;\r\n        Status status;\r\n        uint256 refundedAmount;\r\n        address refundFrom;\r\n        string notes;\r\n        uint256 createdAt;\r\n    }\r\n\r\n    uint256 public transactionCount = 0;\r\n    mapping(uint256 => Transaction) public transactions;\r\n    mapping(string => uint256) public paymentIdToTxnId;\r\n\r\n    event TransactionRecorded(\r\n        uint256 indexed txnId,\r\n        address indexed user,\r\n        uint256 amount,\r\n        string paymentId,\r\n        TransactionType txnType,\r\n        string referenceId,\r\n        Status status,\r\n        uint256 refundedAmount,\r\n        address refundFrom,\r\n        string notes,\r\n        uint256 createdAt\r\n    );\r\n\r\n    modifier onlyValidTxnType(uint8 txnType) {\r\n        require(txnType <= uint8(TransactionType.MoneyTransfer), \"Invalid transaction type\");\r\n        _;\r\n    }\r\n\r\n    function recordTransaction(\r\n        address user,\r\n        uint256 amount,\r\n        string memory paymentId,\r\n        uint8 txnType,\r\n        string memory referenceId,\r\n        uint8 status,\r\n        uint256 refundedAmount,\r\n        address refundFrom,\r\n        string memory notes\r\n    ) external onlyValidTxnType(txnType) {\r\n        require(user != address(0), \"Invalid user address\");\r\n        require(amount > 0, \"Amount must be > 0\");\r\n\r\n        uint256 txnId = transactionCount++;\r\n        transactions[txnId] = Transaction({\r\n            user: user,\r\n            amount: amount,\r\n            paymentId: paymentId,\r\n            transactionType: TransactionType(txnType),\r\n            referenceId: referenceId,\r\n            status: Status(status),\r\n            refundedAmount: refundedAmount,\r\n            refundFrom: refundFrom,\r\n            notes: notes,\r\n            createdAt: block.timestamp\r\n        });\r\n\r\n        paymentIdToTxnId[paymentId] = txnId;\r\n\r\n        emit TransactionRecorded(\r\n            txnId, user, amount, paymentId, \r\n            TransactionType(txnType), referenceId, \r\n            Status(status), refundedAmount, \r\n            refundFrom, notes, block.timestamp\r\n        );\r\n    }\r\n\r\n    function getTransactionById(uint256 txnId) external view returns (Transaction memory) {\r\n        return transactions[txnId];\r\n    }\r\n\r\n    function getTransactionByPaymentId(string calldata paymentId) external view returns (Transaction memory) {\r\n        uint256 txnId = paymentIdToTxnId[paymentId];\r\n        return transactions[txnId];\r\n    }\r\n}\r\n",
  "sourcePath": "C:\\MyDesktop\\Projects\\Refunded-Based-Learning-Platform\\backend\\onchain\\contracts\\transaction.sol",
  "compiler": {
    "name": "solc",
    "version": "0.8.20+commit.a1b79de6.Emscripten.clang"
  },
  "schemaVersion": "3.4.16",
  "updatedAt": "2025-04-05T09:37:33.461Z",
  "devdoc": {
    "kind": "dev",
    "methods": {},
    "version": 1
  },
  "userdoc": {
    "kind": "user",
    "methods": {},
    "version": 1
  }
}